:100000000C9434000C9451000C9451000C94510049
:100010000C9451000C9451000C9451000C9451001C
:100020000C9451000C9451000C9451000C9451000C
:100030000C9451000C9451000C9451000C945100FC
:100040000C9451000C9451000C9451000C945100EC
:100050000C9451000C9451000C9451000C945100DC
:100060000C9451000C94510011241FBECFEFD8E026
:10007000DEBFCDBF11E0A0E0B1E0E0E7F4E002C0F8
:1000800005900D92A230B107D9F721E0A2E0B1E0CE
:1000900001C01D92A430B207E1F70E940A020C943D
:1000A00036020C94000017BC18BC84B5806884BD6F
:1000B00084B5836084BD85B5826085BD8FEF9FEF79
:1000C0009093870080938600109289001092880098
:1000D00010928B0010928A00E0E8F0E08081806A44
:1000E0008083808182608083E1E8F0E080818861A4
:1000F00080838081816080831092B3001092B4006D
:10010000E0EBF0E080818068808380818062808382
:10011000808183608083E1EBF0E080818160808377
:10012000539A239A229A08956AE070E00E9422026C
:1001300030E020E06217730731F430E020E08217EE
:10014000930751F40895EFE3FCE93197F1F700C00C
:1001500000002F5F3F4FEECFEFE9FFE03197F1F75F
:1001600000C000002F5F3F4FEACFCF93DF93EC0139
:10017000D7FD33C0C830D105DCF589B190E00C2E35
:1001800002C0959587950A94E2F780FF3EC08FE5FF
:100190009AEE0197F1F700C0000089B190E00C2EB3
:1001A00002C0959587950A94E2F79C012170332748
:1001B00080FF2BC041E050E002C0440F551FCA959C
:1001C000E2F780E090E0B90129B130E02423352343
:1001D000232BC9F4DF91CF9108952D9A80E797E101
:1001E0000E9494002D9880E797E10E949400C0CF70
:1001F0002D9A88E59BE10E9494002D9888E59BE16B
:100200000E949400B7CFCB01DFCF80E090E0E2CF37
:1002100087E090E00E94B500892B99F080918A00D8
:1002200090918B00905E90938B0080938A008091D8
:10023000B300805E8093B3008091B400805E8093B1
:10024000B4000895CF93DF93EC01D7FD22C0C830EE
:10025000D10554F529B130E00C2E02C03595279513
:100260000A94E2F7C9018170992720FF0FC08FE53A
:100270009AEE0197F1F700C0000089B190E002C04A
:1002800095958795CA95E2F781709927DF91CF916F
:1002900008952D9A80E797E10E9494002D9880E7B9
:1002A00097E10E949400D1CF2D9A88E59BE10E94AE
:1002B00094002D9888E59BE10E949400C8CFEF92AE
:1002C000FF920F931F93CF93DF937C018B01EA0181
:1002D000F7FC14C017FD1DC0D7FD26C0EF2879F12B
:1002E0005D9A012B71F15C9ACD2B69F15A9ADF91DD
:1002F000CF911F910F91FF90EF9008952D9A88EE66
:1003000093E00E9494002D9888EE93E00E94940060
:10031000DFCF2D9A80ED97E00E9494002D9880ED1C
:1003200097E00E949400D6CF2D9A88EB9BE00E9424
:1003300094002D9888EB9BE00E949400CDCF5D98AF
:10034000D0CF5C98D1CF5A98D2CFCF93DF9387E0AC
:1003500090E00E94B500892BC9F080910201909134
:1003600003019C012F5F3F4F099791F130930301E7
:100370002093020120910201309103018AE090E074
:10038000821B930B909301018093000180910201E5
:10039000909103011816190604F1809100019091C3
:1003A0000101181619068CF450E040E070E060E09E
:1003B00090E080E00E945F01D0E0C0E08091000109
:1003C00090910101C817D907FCF0DF91CF910895F2
:1003D0001092030110920201CDCF41E050E061E0A4
:1003E00070E081E090E00E945F01D0E0C0E0809189
:1003F000020190910301C817D9077CF681E090E0D3
:100400000E9494002196F3CF81E090E00E94940036
:100410002196D4CF259A529A549A559A0E94530005
:1004200086E090E00E94B500892B19F40E94A50196
:10043000F7CF86E090E00E94B500892B89F70E94F3
:100440000801F7CFAA1BBB1B51E107C0AA1FBB1FA6
:10045000A617B70710F0A61BB70B881F991F5A9550
:10046000A9F780959095BC01CD010895F894FFCF30
:020470000A0080
:00000001FF
