:100000000C9434000C943E000C943E000C943E0082
:100010000C943E000C943E000C943E000C943E0068
:100020000C943E000C943E000C943E000C943E0058
:100030000C943E000C943E000C943E000C943E0048
:100040000C943E000C943E000C943E000C943E0038
:100050000C943E000C943E000C943E000C943E0028
:100060000C943E000C943E0011241FBECFEFD8E04C
:10007000DEBFCDBF0E9458010C94F2020C94000028
:10008000CF92DF92EF92FF920F931F93CF93DF9364
:1000900000D000D000D0CDB7DEB72D9A9C0150E043
:1000A00040E029833A834B835C83CA01B9010E94F3
:1000B000CE016B017C0120E030E04AE755E4698322
:1000C000DA828B83FC8269817A818B819C810E9498
:1000D0005D028B018E839D8320E030E040E85FE38A
:1000E00069831A838B839C8369817A818B819C814C
:1000F0000E949A0187FD4DC020E03FEF4FE757E493
:1001000069817A818B819C810E94580218168CF536
:1001100020E030E040E251E4C982DA82EB82FC82E6
:1001200069817A818B819C810E945D0269837A83D7
:100130008B839C8369817A818B819C810E949F0142
:10014000CB0120E931E0009779F426960FB6F894B8
:10015000DEBF0FBECDBFDF91CF911F910F91FF90FA
:10016000EF90DF90CF900895F9013197F1F7019763
:10017000EACF09831A832E812B833D813C836981D9
:100180007A818B819C810E949F01CB010197F1F7BD
:10019000DCCF81E090E0FACFCF92DF92EF92FF9236
:1001A0000F931F93CF93DF9300D000D000D0CDB733
:1001B000DEB72D989C0150E040E029833A834B83C1
:1001C0005C83CA01B9010E94CE016B017C0120E071
:1001D00030E04AE755E46983DA828B83FC826981E7
:1001E0007A818B819C810E945D028B018E839D832D
:1001F00020E030E040E85FE369831A838B839C83CF
:1002000069817A818B819C810E949A0187FD4DC012
:1002100020E03FEF4FE757E469817A818B819C8131
:100220000E94580218168CF520E030E040E251E4BC
:10023000C982DA82EB82FC8269817A818B819C811E
:100240000E945D0269837A838B839C8369817A81B2
:100250008B819C810E949F01CB0120E931E00097B6
:1002600079F426960FB6F894DEBF0FBECDBFDF91AE
:10027000CF911F910F91FF90EF90DF90CF90089555
:10028000F9013197F1F70197EACF09831A832E819B
:100290002B833D813C8369817A818B819C810E9483
:1002A0009F01CB010197F1F7DCCF81E090E0FACF1D
:1002B000259A88E293E20E94400088EB9BE00E942E
:1002C000CC0088E293E20E94400088E293E20E9420
:1002D000CC008CE291E00E94400088EB9BE00E9401
:1002E000CC008CE291E00E94400088E293E20E9400
:1002F000CC0088E293E20E94400088EB9BE00E94E1
:10030000CC008CE291E00E94400088EB9BE00E94D0
:10031000CC0088E293E20E94400088EB9BE00E94C0
:10032000CC008CE291E00E94400088E092E50E94BF
:10033000CC00BFCF0E940B0208F481E008950E9418
:10034000370288F09F5798F0B92F9927B751B0F02E
:10035000E1F0660F771F881F991F1AF0BA95C9F749
:1003600014C0B13091F00E945102B1E008950C9494
:100370005102672F782F8827B85F39F0B93FCCF347
:10038000869577956795B395D9F73EF490958095C6
:10039000709561957F4F8F4F9F4F0895E89409C0E6
:1003A00097FB3EF490958095709561957F4F8F4FA8
:1003B0009F4F9923A9F0F92F96E9BB279395F695BE
:1003C000879577956795B795F111F8CFFAF4BB0F3C
:1003D00011F460FF1BC06F5F7F4F8F4F9F4F16C0A0
:1003E000882311F096E911C0772321F09EE8872F2A
:1003F000762F05C0662371F096E8862F70E060E0E6
:100400002AF09A95660F771F881FDAF7880F96955E
:10041000879597F90895990F0008550FAA0BE0E802
:10042000FEEF16161706E807F907C0F012161306B6
:10043000E407F50798F0621B730B840B950B39F4F6
:100440000A2661F0232B242B252B21F408950A265C
:1004500009F4A140A6958FEF811D811D089557FDD8
:100460009058440F551F59F05F3F71F04795880F22
:1004700097FB991F61F09F3F79F0879508951216B9
:1004800013061406551FF2CF4695F1DF08C0161665
:1004900017061806991FF1CF869571056105089416
:1004A0000895E894BB2766277727CB0197F908952D
:1004B0000E940B0208F48FEF08950E9470020C94C2
:1004C000E1020E94D30238F00E94DA0220F0952364
:1004D00011F00C94CA020C94D00211240C94520214
:1004E0000E942F0270F3959FC1F3950F50E0551FA6
:1004F000629FF001729FBB27F00DB11D639FAA2779
:10050000F00DB11DAA1F649F6627B00DA11D661FC7
:10051000829F2227B00DA11D621F739FB00DA11DE8
:10052000621F839FA00D611D221F749F3327A00DA2
:10053000611D231F849F600D211D822F762F6A2F3E
:1005400011249F5750409AF0F1F088234AF0EE0FA3
:10055000FF1FBB1F661F771F881F91505040A9F7D0
:100560009E3F510580F00C94CA020C9452025F3FEA
:10057000E4F3983ED4F3869577956795B795F7950C
:10058000E7959F5FC1F7FE2B880F911D9695879584
:1005900097F9089597F99F6780E870E060E0089503
:1005A0009FEF80EC089500240A941616170618068B
:1005B0000906089500240A94121613061406050667
:1005C0000895092E0394000C11F4882352F0BB0FF8
:1005D00040F4BF2B11F460FF04C06F5F7F4F8F4F5B
:0805E0009F4F0895F894FFCF2E
:00000001FF
