:100000000C9434000C9451000C9451000C94510049
:100010000C9451000C9451000C9451000C9451001C
:100020000C9451000C9451000C9451000C9451000C
:100030000C9451000C9453000C9451000C945100FA
:100040000C9451000C9451000C9451000C945100EC
:100050000C9451000C9451000C9451000C945100DC
:100060000C9451000C94510011241FBECFEFD8E026
:10007000DEBFCDBF12E0A0E0B1E0E2E4F1E102C0FA
:1000800005900D92A23FB107D9F722E0A2EFB2E0AE
:1000900001C01D92A33FB207E1F70E9460050C94D6
:1000A0009F080C9400008F9381E08093F2028F915F
:1000B00018956AE070E00E94BF0630E020E0621709
:1000C000730731F430E020E08217930751F408956C
:1000D000EFE3FCE93197F1F700C000002F5F3F4FDD
:1000E000EECFEFE9FFE03197F1F700C000002F5F9E
:1000F0003F4FEACF299A85E08A95F1F700002998C9
:1001000008955F9890E0B0E0A0E024E0B695A79550
:10011000979587952A95D1F7817031F0599A5A9A17
:100120005B985C980C947A005998F9CFCF92DF9243
:10013000EF92FF92CF93C82FC82ED12CF12CE12C37
:10014000D701C60164E0B695A795979587956A95FE
:10015000D1F7817009F449C0599AD701C60155E019
:10016000B695A795979587955A95D1F7817009F41B
:100170003EC05A9AD701C60146E0B695A795979515
:1001800087954A95D1F78170A1F15B9AC7FF33C07B
:100190005C9A0E947A00C0FF30C0599AD701C6010C
:1001A000B695A79597958795817049F15A9AD70189
:1001B000C60122E0B695A795979587952A95D1F720
:1001C0008170F9F05B9A83E0F694E794D794C79432
:1001D0008A95D1F78C2D8170B1F05C9ACF91FF9008
:1001E000EF90DF90CF900C947A005998B6CF5A9840
:1001F000C1CF5B98CBCF5C98CCCF5998CFCF5A98D2
:10020000D6CF5B98E0CF5C98E9CFCF9351985298C6
:10021000539854985F98289A299A85E08A95F1F71F
:100220000000C9B129980E947A00C4FDF5CF519A07
:10023000529A539A549A2898CF910895CF93C82FE1
:100240000E9405015F988C2FCF910C949600519AD3
:10025000529A539A549A579A209A219A59985A988E
:100260005B985C985F98289829982FEF89EF90E029
:10027000215080409040E1F700C0000080E30E94E0
:1002800081008FE39CE90197F1F700C0000080E353
:100290000E9481008FE99FE00197F1F700C0000004
:1002A00080E30E9481008FE99FE00197F1F700C091
:1002B000000080E20E94810088E20E941E018CE022
:1002C0000E941E0186E00E941E0181E00C941E0126
:1002D000CF93C82F0E9405015F9A8C2FCF910C9469
:1002E000960081E00C941E01803150F4623040F49D
:1002F0006295660F660F607C862B80680C941E01E9
:100300000895CF93682F80E00E947401C1E180E2DC
:100310000E946801C150D9F7CF9108958F929F92A2
:10032000AF92BF92CF92DF92EF92FF920F931F9303
:10033000CF93DF930E940501519852985398549897
:100340005F98289A299A65E06A95F1F7000069B1EB
:1003500089B159B12998299A95E09A95F1F7000049
:1003600099B149B139B129B166956170C62F60E084
:10037000D62F64E0CC0FDD1F6A95E1F782FBAA243B
:10038000A0F8B12C75E0AA0CBB1C7A95E1F78C2F74
:100390008A2996959170892B53FBCC24C0F8D12CD7
:1003A000E6E0CC0CDD1CEA95E1F78C2942FBEE245B
:1003B000E0F8F12CEE0CFF1C8E2933FB002700F92E
:1003C00010E0000F111F000F111F802B24FB882449
:1003D00080F8912CB3E0880C991CBA95E1F7882934
:1003E0002998519A529A539A549A289890E08034B6
:1003F00014F0805491E0DF91CF911F910F91FF9005
:10040000EF90DF90CF90BF90AF909F908F90089526
:10041000EF92FF920F931F93CF93DF937C01C62F30
:100420006830F8F40E948E01182F092F28E0C29F2F
:10043000C001112480640E941E01E701C7010896D3
:100440007C0189910E946801CE15DF05D1F7602FEC
:10045000812FDF91CF911F910F91FF90EF900C941E
:100460007401DF91CF911F910F91FF90EF9008954C
:10047000EF92FF920F931F93CF93DF937C01C62FD0
:10048000683018F50E948E01182F092F28E0C29FAE
:10049000C001112480640E941E01E701C701089673
:1004A0007C01E9910E2E000CFF0B84910E946801E3
:1004B000CE15DF05B1F7602F812FDF91CF911F910E
:1004C0000F91FF90EF900C947401DF91CF911F91E9
:1004D0000F91FF90EF9008950E948E0108950E9461
:1004E0008E01892F08950C946801CF93DF93EC015E
:1004F0008991811103C0DF91CF9108950E94680115
:10050000F7CFCF93DF93EC01FE0184912196811107
:1005100003C0DF91CF9108950E946801F5CFCF937A
:10052000DF93CDB7DEB72C970FB6F894DEBF0FBEC2
:10053000CDBF462F572FBC014115510561057105EF
:1005400059F480E32C960FB6F894DEBF0FBECDBFF2
:10055000DF91CF910C94680141155105610530E898
:10056000730709F4C1C0FE0133968AE0DF011D92D2
:100570008A95E9F780E3898320E077FF08C07095CA
:100580006095509541955F4F6F4F7F4F21E080E31D
:100590004130BAEC5B07BAE96B07BBE37B0794F029
:1005A000DB01CA019A5CAA49BB4381303AEC93074C
:1005B0003AE9A3073BE3B3070CF49FC054596543E2
:1005C000774782E38A8380E3982F8F5F4115A1EEFE
:1005D0005A07A5EF6A07A5E07A070CF092C09B8343
:1005E00080E3982F8F5F4038B6E95B07B8E96B0767
:1005F00071050CF08AC09C8380E3982F8F5F403494
:1006000032E453073FE0630771050CF083C09D831C
:1006100080E3982F8F5F403AA6E85A07A1E06A0767
:1006200071050CF07CC09E8380E3982F8F5F403172
:10063000B7E25B07610571050CF076C09F8380E32C
:10064000982F8F5F483E33E05307610571050CF02A
:1006500070C0988780E3982F8F5F443651056105FD
:1006600071050CF06BC0998780E3982F8F5F4A303B
:100670005105610571050CF066C09A87405D4B8796
:1006800080E0982F8F5FE1E0F0E0EC0FFD1FE80FB6
:10069000F11D30813033A9F3222349F0E1E0F0E08D
:1006A000EC0FFD1FE90FF11D8DE28083892F3AE0E9
:1006B000381B20E090E0E1E0F0E0EC0FFD1FE20FDE
:1006C000F11DDF01A80FB91F4C9140832F5F321736
:1006D00090F7E1E0F0E0EC0FFD1FE20FF11D10825A
:1006E000CE0101960E9475022C960FB6F894DEBFDB
:1006F0000FBECDBFDF91CF910895AC01BD0181E365
:1007000061CF515E654F75405FCF4058564968498B
:10071000710967CF405452446F4071096ECF405AFF
:1007200056486140710975CF4051574261097109BE
:100730007CCF485E53406109710982CF445651090C
:100740006109710988CF4A505109610971098DCF3A
:10075000CF92DF92EF92FF920F931F93CF93DF938D
:1007600000D000D000D0CDB7DEB76B017C01C982CC
:10077000DA82EB82FC8289014E835D8320E030E0E7
:10078000A9010E944007811117C080E30E946801FF
:100790008EE20E94680180E326960FB6F894DEBFD1
:1007A0000FBECDBFDF91CF911F910F91FF90EF90C2
:1007B000DF90CF900C94680120E030E040E05FECE7
:1007C00069817A818B819C810E942D0887FD6BC095
:1007D00020E030E040E05FE469817A818B819C8198
:1007E0000E94400787FF5FC020E030E0A9016981D7
:1007F0007A818B819C810E94400787FF0CC0898190
:100800009A81AB81BC81B05889839A83AB83BC83C6
:100810008DE20E94680169817A818B819C810E94AE
:1008200045070E948F028EE20E94680169817A81E9
:100830008B819C810E944C070E947B079B01AC012D
:1008400069817A818B819C810E94D3066B017C0136
:10085000B8018E819D810E947B079B01AC01C982FA
:10086000DA82EB82FC8269817A818B819C810E9491
:10087000320869837A838B839C8369817A818B8137
:100880009C810E94450726960FB6F894DEBF0FBEE6
:10089000CDBFDF91CF911F910F91FF90EF90DF902F
:1008A000CF900C948F0226960FB6F894DEBF0FBE41
:1008B000CDBFDF91CF911F910F91FF90EF90DF900F
:1008C000CF900895882329F0509A3D9A3C9A3B9AFC
:1008D000089550983D983C983B980895882321F0BE
:1008E0003A9A399A389A08953A98399838980895E2
:1008F000882329F0589A459A449A439A089558981B
:100900004598449843980895882321F0429A419A43
:10091000409A0895429841984098089581110BC0DB
:10092000509A58983D98459A823059F43C9A449888
:100930003B98439A08955098589A813099F73D9A78
:1009400045983C98449A833099F73B9A4398089588
:10095000811109C03A9A42983998419A823049F4F3
:10096000389A409808953A98429A8130A9F7399A6E
:1009700041983898409A0895CF93C0E08C2F0E94F8
:100980008E04329B11C0319B11C0309B11C0CF5FD0
:10099000C430A1F7C0E080E00E94620481E00E94C0
:1009A00078048C2FCF910895C1E0F5CFC2E0F3CF4A
:1009B000C3E0F1CFCF93C0E08C2F0E94A804489BE6
:1009C00013C0359B13C0349B13C0339B13C0CF5F40
:1009D000C33091F7C0E080E00E946E0481E00E9485
:1009E00084048C2FCF910895C1E0F5CFC2E0F3CFFE
:1009F000C3E0F1CFC4E0EFCF80E00E94620480E06A
:100A00000E946E0481E00E94780481E00C948404CA
:100A1000CF93DF930E94BC04C82F80E0C1110E94D5
:100A2000DA0490E1C99FE00111248C2BDF91CF9172
:100A30000895249A2398259822982A9A83E48CBDB5
:100A40008DB58EB508952A9A229A239A259A2498CC
:100A50002A9A2D9882E58CBD8DB58EB508958EBDF0
:100A60000DB407FEFDCF8EB508956AE070E00E94D8
:100A7000BF0630E020E06217730731F430E020E079
:100A80008217930751F40895EFE3FCE93197F1F7EA
:100A900000C000002F5F3F4FEECFEFE9FFE031973E
:100AA000F1F700C000002F5F3F4FEACF8EBD0DB4BD
:100AB00007FEFDCF82E390E00E9435058EB50895D4
:100AC00000D000D000D0CDB7DEB70E9427010E9431
:100AD000FC040E94230581E08093810080936F00D5
:100AE0001092F202789460E080E00E9474018DE838
:100AF00092E00E9475020E946F02282F30E050E0C1
:100B000040E0CA01B9010E948F0261E080E00E94CA
:100B100074018CE992E00E9475020E946F02282FF6
:100B200030E050E040E029833A834B835C83CA0184
:100B3000B9010E948F0281EA92E00E94750288EE5C
:100B400093E00E9459000E947101198200E011E0B7
:100B50008091F2028823E1F31092F2020E940805CC
:100B60008D838823A9F34981481709F46AC00E943C
:100B7000710160E088E00E9474018DEA92E00E94B9
:100B800075029D81892F90E0B0E0A0E089839A836F
:100B9000AB83BC83BC01CD010E948F022A988D815A
:100BA0000E9456058983C12CD12C7601BD80B39457
:100BB00061E089E00E94740183EB92E00E9475027B
:100BC000C701B6010E948F0284EE92E00E94750276
:100BD0003981232F30E050E040E0CA01B9010E9482
:100BE0008F028B2D8C0D0E94560589834FEFC41AFE
:100BF000D40AE40AF40A57E0C516D104E104F1046A
:100C0000B9F661E089E00E94740183EB92E00E94F2
:100C1000750267E070E080E090E00E948F0284EE51
:100C200092E00E9475029981892F90E0B0E0A0E0E7
:100C300089839A83AB83BC83BC01CD010E948F0260
:100C40002A9AFD80F2949FE0F922AD81AF70AE83C5
:100C500060E080E00E9474012F2D30E050E040E021
:100C6000CA01B9010E948F0261E080E00E94740114
:100C70009E81892F90E0B0E0A0E089839A83AB83C6
:100C8000BC83BC01CD010E948F02A2E0FA1240C0D9
:100C9000BE81B43089F50E94710160E080E00E945D
:100CA000740186EB92E00E94750288EE93E00E9448
:100CB00059002A9882EF0E945605F8010190002001
:100CC000E9F79F0121503140790180E0A82E81E0B1
:100CD000B82ED12CC12CCE14DF048CF00E947101EF
:100CE00080E00E9456052A9A61E080E00E9474012B
:100CF00085EC92E00E9475023D81398329CFD501B0
:100D00008D915D010E945605BFEFCB1ADB0AE3CF40
:100D1000E3E0FE12F1CFFE81F43071F70E94710121
:100D200060E080E00E94740183ED92E00E94750211
:100D30002A98C12CD12C760161E080E00E947401D8
:100D400080EE92E00E947502C701B6010E948F02F8
:100D500081E00E9456052FEFC21AD20AE20AF20A77
:100D600038EEC31633E0D306E104F10429F72A9ADA
:100D700061E080E00E94740186EE92E0BBCFAA1B86
:100D8000BB1B51E107C0AA1FBB1FA617B70710F076
:100D9000A61BB70B881F991F5A95A9F780959095A8
:100DA000BC01CD0108955058BB27AA270E94EB062D
:100DB0000C94F3070E94E50738F00E94EC0720F03E
:100DC00039F49F3F19F426F40C94E2070EF4E095F1
:100DD000E7FB0C94DC07E92F0E94040858F3BA17CC
:100DE000620773078407950720F079F4A6F50C9441
:100DF00026080EF4E0950B2EBA2FA02D0B01B90199
:100E000090010C01CA01A0011124FF27591B99F080
:100E1000593F50F4503E68F11A16F040A22F232F8C
:100E2000342F4427585FF3CF469537952795A795DC
:100E3000F0405395C9F77EF41F16BA0B620B730B83
:100E4000840BBAF09150A1F0FF0FBB1F661F771FF4
:100E5000881FC2F70EC0BA0F621F731F841F48F4A9
:100E6000879577956795B795F7959E3F08F0B0CF32
:100E70009395880F08F09927EE0F97958795089519
:100E80000E94B80708F481E008950E944C07689416
:100E9000B1110C94270808950E940C0888F09F5700
:100EA00098F0B92F9927B751B0F0E1F0660F771F8E
:100EB000881F991F1AF0BA95C9F714C0B13091F084
:100EC0000E942608B1E008950C942608672F782F19
:100ED0008827B85F39F0B93FCCF386957795679549
:100EE000B395D9F73EF490958095709561957F4FB5
:100EF0008F4F9F4F0895E89409C097FB3EF490955B
:100F00008095709561957F4F8F4F9F4F9923A9F0E2
:100F1000F92F96E9BB279395F69587957795679571
:100F2000B795F111F8CFFAF4BB0F11F460FF1BC0B5
:100F30006F5F7F4F8F4F9F4F16C0882311F096E948
:100F400011C0772321F09EE8872F762F05C06623F6
:100F500071F096E8862F70E060E02AF09A95660FAF
:100F6000771F881FDAF7880F9695879597F9089568
:100F7000990F0008550FAA0BE0E8FEEF16161706AA
:100F8000E807F907C0F012161306E407F50798F012
:100F9000621B730B840B950B39F40A2661F0232B2B
:100FA000242B252B21F408950A2609F4A140A695A7
:100FB0008FEF811D811D089597F99F6780E870E08C
:100FC00060E008959FEF80EC089500240A941616BF
:100FD000170618060906089500240A941216130627
:100FE000140605060895092E0394000C11F48823B5
:100FF00052F0BB0F40F4BF2B11F460FF04C06F5FD1
:101000007F4F8F4F9F4F089557FD9058440F551FA6
:1010100059F05F3F71F04795880F97FB991F61F07A
:101020009F3F79F087950895121613061406551FF1
:10103000F2CF4695F1DF08C0161617061806991F5D
:10104000F1CF86957105610508940895E894BB2752
:1010500066277727CB0197F908950E94B80708F40F
:101060008FEF08950E9445080C94F3070E94E5074E
:1010700038F00E94EC0720F0952311F00C94DC0767
:101080000C94E20711240C9427080E94040870F3C2
:10109000959FC1F3950F50E0551F629FF001729F1D
:1010A000BB27F00DB11D639FAA27F00DB11DAA1F2C
:1010B000649F6627B00DA11D661F829F2227B00D79
:1010C000A11D621F739FB00DA11D621F839FA00D04
:1010D000611D221F749F3327A00D611D231F849F54
:1010E000600D211D822F762F6A2F11249F575040AB
:1010F0009AF0F1F088234AF0EE0FFF1FBB1F661F26
:10110000771F881F91505040A9F79E3F510580F0EE
:101110000C94DC070C9427085F3FE4F3983ED4F36B
:10112000869577956795B795F795E7959F5FC1F792
:10113000FE2B880F911D9695879597F90895F89441
:02114000FFCFDF
:1011420049742773206E6F7420666F72206E6F74FD
:1011520068696E67207468617420616476616E6389
:101162006564206D617468656D6174696373207470
:10117200656E647320746F20626520696E76656E99
:1011820074656420696E20686F7420636F756E7475
:10119200726965732E2049742773206265636175D5
:1011A2007365206F6620746865206D6F7270686960
:1011B20063207265736F6E616E6365206F66206176
:1011C2006C6C207468652063616D656C732C20778C
:1011D200686F206861766520746861742064697341
:1011E2006461696E66756C20657870726573736987
:1011F2006F6E20616E642066616D6F75732063751A
:10120200726C6564206C69702061732061206E616C
:10121200747572616C20726573756C74206F6620D0
:10122200616E206162696C69747920746F20646FE9
:10123200207175616472617469632065717561748E
:10124200696F6E732E202049742773206E6F74208D
:1012520067656E6572616C6C79207265616C697329
:10126200656420746861742063616D656C732068C5
:101272006176652061206E61747572616C206170A7
:1012820074697475646520666F7220616476616E3C
:10129200636564206D617468656D61746963732C44
:1012A20020706172746963756C61726C7920776801
:1012B200657265207468657920696E766F6C7665F3
:1012C2002062616C6C6973746963732E00535049B8
:1012D200207B506172656E747D3A20004C43445B02
:1012E200005D20776F726B696E6721210053656E16
:1012F200643A00693A00426D61726B696E672069F7
:101302006E20317300426D61726B696E6720446FAB
:101312006E650053656E64696E6720307830300008
:10132200307830313A005265736574732073656E9C
:02133200740045
:00000001FF
