:100000000C9434000C9449000C9449000C94490061
:100010000C9449000C9449000C9449000C9449003C
:100020000C9449000C9449000C9449000C9449002C
:100030000C9449000C9449000C9449000C9449001C
:100040000C9449000C9449000C9449000C9449000C
:100050000C9449000C9449000C9449000C944900FC
:100060000C9449000C94490011241FBECFEFD8E036
:10007000DEBFCDBF11E0A0E0B1E0E8EBFDE002C0E3
:1000800005900D92AE32B107D9F70E9454040C943A
:10009000DA060C940000482F29B130E002C03595F3
:1000A00027958A95E2F7C9018170992720FF13C02F
:1000B0002FEF86E791E0215080409040E1F700C0AB
:1000C000000099B1892F90E002C0959587954A95D7
:1000D000E2F78170992708952B9A85E08A95F1F7C8
:1000E00000002B9808952C9890E0B0E0A0E024E068
:1000F000B695A795979587952A95D1F7817031F098
:10010000599A5A9A5B985C980C946C005998F9CF5C
:10011000CF92DF92EF92FF92CF93C82FC82ED12CAF
:10012000F12CE12CD701C60164E0B695A79597950F
:1001300087956A95D1F7817009F449C0599AD7011A
:10014000C60155E0B695A795979587955A95D1F72D
:10015000817009F43EC05A9AD701C60146E0B695AF
:10016000A795979587954A95D1F78170A1F15B9AEC
:10017000C7FF33C05C9A0E946C00C0FF30C0599A20
:10018000D701C601B695A79597958795817049F1D6
:100190005A9AD701C60122E0B695A79597958795FB
:1001A0002A95D1F78170F9F05B9A83E0F694E79491
:1001B000D794C7948A95D1F78C2D8170B1F05C9A51
:1001C000CF91FF90EF90DF90CF900C946C005998F6
:1001D000B6CF5A98C1CF5B98CBCF5C98CCCF59980B
:1001E000CFCF5A98D6CF5B98E0CF5C98E9CFCF932A
:1001F00051985298539854982C982A9A2B9A85E0A3
:100200008A95F1F70000C9B12B980E946C00C4FDDB
:10021000F5CF519A529A539A549A2A98CF910895A9
:10022000CF93C82F0E94F7002C988C2FCF910C945D
:100230008800519A529A539A549A249A229A239A4D
:1002400059985A985B985C982C982A982B982FEF7D
:1002500089EF90E0215080409040E1F700C000001D
:1002600080E30E9473008FE39CE90197F1F700C0DF
:10027000000080E30E9473008FE99FE00197F1F78F
:1002800000C0000080E30E9473008FE99FE00197A7
:10029000F1F700C0000080E20E94730088E20E9433
:1002A00010018CE00E94100186E00E94100181E0A4
:1002B0000C941001CF93C82F0E94F7002C9A8C2F1A
:1002C000CF910C94880081E00C941001803150F49F
:1002D000623040F46295660F660F607C862B806802
:1002E0000C9410010895CF93682F80E00E9466015E
:1002F000C1E180E20E945A01C150D9F7CF9108951F
:100300008F929F92AF92BF92CF92DF92EF92FF9225
:100310000F931F93CF93DF930E94F7005198529849
:10032000539854982C982A9A2B9A65E06A95F1F77D
:10033000000069B189B159B12B982B9A95E09A9533
:10034000F1F7000099B149B139B129B166956170F1
:10035000C62F60E0D62F64E0CC0FDD1F6A95E1F771
:1003600082FBAA24A0F8B12C75E0AA0CBB1C7A95DC
:10037000E1F78C2F8A2996959170892B53FBCC2419
:10038000C0F8D12CE6E0CC0CDD1CEA95E1F78C2915
:1003900042FBEE24E0F8F12CEE0CFF1C8E2933FB1F
:1003A000002700F910E0000F111F000F111F802B14
:1003B00024FB882480F8912CB3E0880C991CBA9512
:1003C000E1F788292B98519A529A539A549A2A986D
:1003D00090E0803414F0805491E0DF91CF911F9130
:1003E0000F91FF90EF90DF90CF90BF90AF909F90D4
:1003F0008F900895EF92FF920F931F93CF93DF9307
:100400007C01C62F6830F8F40E948001182F092F54
:1004100028E0C29FC001112480640E941001E701FE
:10042000C70108967C0189910E945A01CE15DF050B
:10043000D1F7602F812FDF91CF911F910F91FF9006
:10044000EF900C946601DF91CF911F910F91FF9077
:10045000EF900895EF92FF920F931F93CF93DF9346
:100460007C01C62F683018F50E948001182F092FD3
:1004700028E0C29FC001112480640E941001E7019E
:10048000C70108967C01E9910E2E000CFF0B8491A8
:100490000E945A01CE15DF05B1F7602F812FDF9141
:1004A000CF911F910F91FF90EF900C946601DF9117
:1004B000CF911F910F91FF90EF9008950E948001BE
:1004C00008950E948001892F08950C945A01CF93BA
:1004D000DF93EC018991811103C0DF91CF910895E1
:1004E0000E945A01F7CFCF93DF93EC01FE01849174
:1004F0002196811103C0DF91CF9108950E945A0186
:10050000F5CFCF93DF93CDB7DEB72C970FB6F89426
:10051000DEBF0FBECDBF462F572FBC014115510581
:100520006105710559F480E32C960FB6F894DEBF8F
:100530000FBECDBFDF91CF910C945A0141155105EB
:10054000610530E8730709F4C1C0FE0133968AE003
:10055000DF011D928A95E9F780E3898320E077FF28
:1005600008C070956095509541955F4F6F4F7F4FD4
:1005700021E080E34130BAEC5B07BAE96B07BBE3EB
:100580007B0794F0DB01CA019A5CAA49BB43813026
:100590003AEC93073AE9A3073BE3B3070CF49FC097
:1005A00054596543774782E38A8380E3982F8F5FAE
:1005B0004115A1EE5A07A5EF6A07A5E07A070CF0EE
:1005C00092C09B8380E3982F8F5F4038B6E95B072A
:1005D000B8E96B0771050CF08AC09C8380E3982F03
:1005E0008F5F403432E453073FE0630771050CF03E
:1005F00083C09D8380E3982F8F5F403AA6E85A0717
:10060000A1E06A0771050CF07CC09E8380E3982FFF
:100610008F5F4031B7E25B07610571050CF076C072
:100620009F8380E3982F8F5F483E33E05307610537
:1006300071050CF070C0988780E3982F8F5F443667
:100640005105610571050CF06BC0998780E3982F07
:100650008F5F4A305105610571050CF066C09A87BD
:10066000405D4B8780E0982F8F5FE1E0F0E0EC0F7A
:10067000FD1FE80FF11D30813033A9F3222349F02B
:10068000E1E0F0E0EC0FFD1FE90FF11D8DE280834A
:10069000892F3AE0381B20E090E0E1E0F0E0EC0F39
:1006A000FD1FE20FF11DDF01A80FB91F4C91408320
:1006B0002F5F321790F7E1E0F0E0EC0FFD1FE20F43
:1006C000F11D1082CE0101960E9467022C960FB692
:1006D000F894DEBF0FBECDBFDF91CF910895AC017E
:1006E000BD0181E361CF515E654F75405FCF4058DA
:1006F00056496849710967CF405452446F407109A7
:100700006ECF405A56486140710975CF40515742EB
:10071000610971097CCF485E53406109710982CF3C
:10072000445651096109710988CF4A50510961093C
:1007300071098DCFCF92DF92EF92FF920F931F93AB
:10074000CF93DF9300D000D000D0CDB7DEB76B01E0
:100750007C01C982DA82EB82FC8289014E835D834F
:1007600020E030E0A9010E947B05811117C080E3E1
:100770000E945A018EE20E945A0180E326960FB62B
:10078000F894DEBF0FBECDBFDF91CF911F910F91C7
:10079000FF90EF90DF90CF900C945A0120E030E072
:1007A00040E05FEC69817A818B819C810E946806C0
:1007B00087FD6BC020E030E040E05FE469817A8132
:1007C0008B819C810E947B0587FF5FC020E030E029
:1007D000A90169817A818B819C810E947B0587FFB9
:1007E0000CC089819A81AB81BC81B05889839A837E
:1007F000AB83BC838DE20E945A0169817A818B812F
:100800009C810E9480050E9481028EE20E945A0112
:1008100069817A818B819C810E9487050E94B6053F
:100820009B01AC0169817A818B819C810E940E05BC
:100830006B017C01B8018E819D810E94B6059B01F0
:10084000AC01C982DA82EB82FC8269817A818B8178
:100850009C810E946D0669837A838B839C83698166
:100860007A818B819C810E94800526960FB6F89430
:10087000DEBF0FBECDBFDF91CF911F910F91FF90D3
:10088000EF90DF90CF900C94810226960FB6F894EB
:10089000DEBF0FBECDBFDF91CF911F910F91FF90B3
:1008A000EF90DF90CF900895CDB7DEB728970FB6C1
:1008B000F894DEBF0FBECDBF0E9419010E946301F4
:1008C00019821A821B821C8283E0C82ED12CE12C53
:1008D000F12C85E090E00E944B00892B99F060E0BC
:1008E00080E00E9466010E94630180E091E00E9426
:1008F000670261E080E00E9466018FE091E00E9463
:10090000670239C086E090E00E944B00892B99F184
:1009100089819A81AB81BC810196A11DB11D89831A
:100920009A83AB83BC8360E080E00E9466010E94F2
:10093000630169817A818B819C81A70196010E9464
:10094000EC046D837E838F839887672B682B692BDC
:10095000E1F460E080E00E94660181E291E00E94A3
:10096000670261E080E00E94660169817A818B8183
:100970009C810E9481029FEFA7EEB3E09150A040BE
:10098000B040E1F700C00000A4CF8D819E81AF810F
:10099000B88560E00197A105B10581F480E00E946F
:1009A000660169817A818B819C810E94810261E06C
:1009B00080E00E94660186E291E0A1CF80E00E9483
:1009C000660186E291E00E94670261E080E00E9499
:1009D000660181E291E093CFA1E21A2EAA1BBB1B14
:1009E000FD010DC0AA1FBB1FEE1FFF1FA217B307FB
:1009F000E407F50720F0A21BB30BE40BF50B661F11
:100A0000771F881F991F1A9469F7609570958095D4
:100A100090959B01AC01BD01CF0108955058BB27B3
:100A2000AA270E9426050C942E060E94200638F064
:100A30000E94270620F039F49F3F19F426F40C9405
:100A40001D060EF4E095E7FB0C941706E92F0E94B3
:100A50003F0658F3BA17620773078407950720F01B
:100A600079F4A6F50C9461060EF4E0950B2EBA2FDE
:100A7000A02D0B01B90190010C01CA01A0011124A4
:100A8000FF27591B99F0593F50F4503E68F11A1650
:100A9000F040A22F232F342F4427585FF3CF4695E1
:100AA00037952795A795F0405395C9F77EF41F1603
:100AB000BA0B620B730B840BBAF09150A1F0FF0FCD
:100AC000BB1F661F771F881FC2F70EC0BA0F621FB9
:100AD000731F841F48F4879577956795B795F795A9
:100AE0009E3F08F0B0CF9395880F08F09927EE0F3E
:100AF0009795879508950E94F30508F481E008957D
:100B00000E9487056894B1110C94620608950E94B2
:100B1000470688F09F5798F0B92F9927B751B0F042
:100B2000E1F0660F771F881F991F1AF0BA95C9F771
:100B300014C0B13091F00E946106B1E008950C94A8
:100B40006106672F782F8827B85F39F0B93FCCF35B
:100B5000869577956795B395D9F73EF490958095EE
:100B6000709561957F4F8F4F9F4F0895E89409C00E
:100B700097FB3EF490958095709561957F4F8F4FD0
:100B80009F4F9923A9F0F92F96E9BB279395F695E6
:100B9000879577956795B795F111F8CFFAF4BB0F64
:100BA00011F460FF1BC06F5F7F4F8F4F9F4F16C0C8
:100BB000882311F096E911C0772321F09EE8872F52
:100BC000762F05C0662371F096E8862F70E060E00E
:100BD0002AF09A95660F771F881FDAF7880F969587
:100BE000879597F90895990F0008550FAA0BE0E82B
:100BF000FEEF16161706E807F907C0F012161306DF
:100C0000E407F50798F0621B730B840B950B39F41E
:100C10000A2661F0232B242B252B21F408950A2684
:100C200009F4A140A6958FEF811D811D089597F9C4
:100C30009F6780E870E060E008959FEF80EC089582
:100C400000240A94161617061806090608950024AB
:100C50000A9412161306140605060895092E039425
:100C6000000C11F4882352F0BB0F40F4BF2B11F499
:100C700060FF04C06F5F7F4F8F4F9F4F089557FDF8
:100C80009058440F551F59F05F3F71F04795880FFA
:100C900097FB991F61F09F3F79F087950895121691
:100CA00013061406551FF2CF4695F1DF08C016163D
:100CB00017061806991FF1CF8695710561050894EE
:100CC0000895E894BB2766277727CB0197F9089505
:100CD0000E94F30508F48FEF08950E9480060C949B
:100CE0002E060E94200638F00E94270620F0952349
:100CF00011F00C9417060C941D0611240C94620636
:100D00000E943F0670F3959FC1F3950F50E0551F69
:100D1000629FF001729FBB27F00DB11D639FAA2750
:100D2000F00DB11DAA1F649F6627B00DA11D661F9F
:100D3000829F2227B00DA11D621F739FB00DA11DC0
:100D4000621F839FA00D611D221F749F3327A00D7A
:100D5000611D231F849F600D211D822F762F6A2F16
:100D600011249F5750409AF0F1F088234AF0EE0F7B
:100D7000FF1FBB1F661F771F881F91505040A9F7A8
:100D80009E3F510580F00C9417060C9462065F3F5D
:100D9000E4F3983ED4F3869577956795B795F795E4
:100DA000E7959F5FC1F7FE2B880F911D969587955C
:080DB00097F90895F894FFCFB4
:100DB800427574746F6E20313A204D656E7500422D
:100DC8007574746F6E20323A205363726F6C6C7353
:0E0DD800004A6F7365004543453438344200CD
:00000001FF
