:100000000C9434000C943E000C943E000C943E0082
:100010000C943E000C943E000C943E000C943E0068
:100020000C943E000C943E000C943E000C943E0058
:100030000C943E000C943E000C943E000C943E0048
:100040000C943E000C943E000C943E000C943E0038
:100050000C943E000C943E000C943E000C943E0028
:100060000C943E000C943E0011241FBECFEFD8E04C
:10007000DEBFCDBF0E94B6000C9401010C940000BD
:100080006AE070E00E94ED0080E090E06817790778
:1000900009F40895EFE3FCE93197F1F700C000009F
:1000A0000196F4CFCF93DF93EC01D7FD1EC089B149
:1000B00090E00C2E02C0959587950A94E2F7817026
:1000C0009927009779F08FE59AEE0197F1F700C034
:1000D000000089B190E002C095958795CA95E2F736
:1000E00081709927DF91CF9108952D9A80E797E14C
:1000F0000E9440002D9880E797E10E944000D5CFF4
:10010000CF93DF93FC019B01CA01EF01C60FD71FFC
:10011000C40FD51F209759F42D9A88E893E10E94C7
:1001200040002D9888E893E10E944000F5CFEF2B26
:1001300061F05D9A232B59F05C9A892B51F05B9A00
:10014000D7FD09C0DF91CF9108955D98F3CF5C98FA
:10015000F4CF5B98F5CF2D9A80EA9FE00E94400093
:100160002D9880ED97E00E944000EACF259A539A9F
:10017000549A559A40E050E060E070E081E090E0F1
:100180000E94800040E050E060E070E081E090E09C
:100190000E94800087E090E00E945200892B91F33A
:1001A00088EB9BE00E94400040E050E061E070E09E
:1001B00080E090E00E94800080ED97E00E94400087
:1001C00041E050E060E070E080E090E00E9480005C
:1001D00088E893E10E944000CDCFAA1BBB1B51E1F0
:1001E00007C0AA1FBB1FA617B70710F0A61BB70BA7
:1001F000881F991F5A95A9F780959095BC01CD014C
:060200000895F894FFCF01
:00000001FF
