:100000000C9434000C943E000C943E000C943E0082
:100010000C943E000C943E000C943E000C943E0068
:100020000C943E000C943E000C943E000C943E0058
:100030000C943E000C943E000C943E000C943E0048
:100040000C943E000C943E000C943E000C943E0038
:100050000C943E000C943E000C943E000C943E0028
:100060000C943E000C943E0011241FBECFEFD8E04C
:10007000DEBFCDBF0E9482000C94CD000C94000026
:10008000482F29B130E002C0359527958A95E2F7CF
:10009000C9018170992720FF10C08FE59AEE019762
:1000A000F1F700C0000099B1892F90E002C095954A
:1000B00087954A95E2F7817099270895FB019A0187
:1000C000892B41F05D9AEF2B39F05C9A232B31F0AC
:1000D0005B9A08955D98F7CF5C98F8CF5B98089588
:1000E0006AE070E00E94B90090E080E0681779074C
:1000F00009F40895EFE3FCE93197F1F700C000003F
:100100000196F4CF259A539A549A559A50E040E0BC
:1001100070E060E081E090E00E945E0050E040E02E
:1001200070E060E081E090E00E945E0087E090E097
:100130000E944000892B91F388EB9BE00E947000A5
:1001400050E040E061E070E090E080E00E945E00FE
:1001500080ED97E00E94700041E050E070E060E0C8
:1001600090E080E00E945E0088E893E10E947000C9
:10017000CDCFAA1BBB1B51E107C0AA1FBB1FA617EF
:10018000B70710F0A61BB70B881F991F5A95A9F740
:0E01900080959095BC01CD010895F894FFCFA5
:00000001FF
