:100000000C9434000C9451000C9451000C94510049
:100010000C9451000C9451000C9451000C9451001C
:100020000C9451000C9451000C9451000C9451000C
:100030000C9451000C9474000C9451000C945100D9
:100040000C9451000C9451000C9451000C945100EC
:100050000C9451000C9451000C9451000C945100DC
:100060000C9451000C94510011241FBECFEFD8E026
:10007000DEBFCDBF12E0A0E0B1E0ECEDF0E102C0E8
:1000800005900D92AE3CB107D9F722E0AEECB2E09C
:1000900001C01D92A93EB207E1F70E942B050C9406
:1000A0006C080C9400006AE070E00E948C0630E05E
:1000B00020E06217730731F430E020E082179307E5
:1000C00051F40895EFE3FCE93197F1F700C0000027
:1000D0002F5F3F4FEECFEFE9FFE03197F1F700C020
:1000E00000002F5F3F4FEACF1F921FB61F921124CF
:1000F0008F939F93AF93BF93F8948091E502909173
:10010000E602A091E702B091E8020196A11DB11D9F
:100110008093E5029093E602A093E702B093E80291
:100120007894BF91AF919F918F911F901FBE1F90A8
:100130001895CF93DF9300D000D0CDB7DEB7F894F9
:10014000EFE6F0E080818E7F80838091E5029091E0
:10015000E602A091E702B091E80278949C01AD011B
:100160008CE0220F331F441F551F8A95D1F7298336
:100170003A834B835C83CA01B9010E944A076983B1
:100180007A838B839C8369817A818B819C810F9098
:100190000F900F900F90DF91CF9108951092E5028C
:1001A0001092E6021092E7021092E80281E080933A
:1001B000810080936F000895AB0120E031E0F901E8
:1001C00001900020E9F79F01215031406217730729
:1001D00008F0A901FC01A0E0B1E030E020E090E0EF
:1001E00080E0241735070CF0089571916D91761316
:1001F00001962F5F3F4FF5CF299A85E08A95F1F759
:100200000000299808955F9890E0B0E0A0E024E015
:10021000B695A795979587952A95D1F7817031F076
:10022000599A5A9A5B985C980C94FC005998F9CFAB
:10023000CF92DF92EF92FF92CF93C82FC82ED12C8E
:10024000F12CE12CD701C60164E0B695A7959795EE
:1002500087956A95D1F7817009F449C0599AD701F9
:10026000C60155E0B695A795979587955A95D1F70C
:10027000817009F43EC05A9AD701C60146E0B6958E
:10028000A795979587954A95D1F78170A1F15B9ACB
:10029000C7FF33C05C9A0E94FC00C0FF30C0599A6F
:1002A000D701C601B695A79597958795817049F1B5
:1002B0005A9AD701C60122E0B695A79597958795DA
:1002C0002A95D1F78170F9F05B9A83E0F694E79470
:1002D000D794C7948A95D1F78C2D8170B1F05C9A30
:1002E000CF91FF90EF90DF90CF900C94FC00599845
:1002F000B6CF5A98C1CF5B98CBCF5C98CCCF5998EA
:10030000CFCF5A98D6CF5B98E0CF5C98E9CFCF9308
:1003100051985298539854985F98289A299A85E052
:100320008A95F1F70000C9B129980E94FC00C4FD2C
:10033000F5CF519A529A539A549A2898CF9108958A
:10034000CF93C82F0E9487015F988C2FCF910C9478
:100350001801519A529A539A549A579A209A219A6C
:1003600059985A985B985C985F98289829982FEF2D
:1003700089EF90E0215080409040E1F700C00000FC
:1003800080E30E9403018FE39CE90197F1F700C02D
:10039000000080E30E9403018FE99FE00197F1F7DD
:1003A00000C0000080E30E9403018FE99FE00197F5
:1003B000F1F700C0000080E20E94030188E20E9481
:1003C000A0018CE00E94A00186E00E94A00181E0D3
:1003D0000C94A001CF93C82F0E9487015F9A8C2FA5
:1003E000CF910C94180181E00C94A001803150F45D
:1003F000623040F46295660F660F607C862B8068E1
:100400000C94A0010895CF93682F80E00E94F6011C
:10041000C1E180E20E94EA01C150D9F7CF9108956D
:100420008F929F92AF92BF92CF92DF92EF92FF9204
:100430000F931F93CF93DF930E9487015198529897
:10044000539854985F98289A299A65E06A95F1F72D
:10045000000069B189B159B12998299A95E09A9516
:10046000F1F7000099B149B139B129B166956170D0
:10047000C62F60E0D62F64E0CC0FDD1F6A95E1F750
:1004800082FBAA24A0F8B12C75E0AA0CBB1C7A95BB
:10049000E1F78C2F8A2996959170892B53FBCC24F8
:1004A000C0F8D12CE6E0CC0CDD1CEA95E1F78C29F4
:1004B00042FBEE24E0F8F12CEE0CFF1C8E2933FBFE
:1004C000002700F910E0000F111F000F111F802BF3
:1004D00024FB882480F8912CB3E0880C991CBA95F1
:1004E000E1F788292998519A529A539A549A289850
:1004F00090E0803414F0805491E0DF91CF911F910F
:100500000F91FF90EF90DF90CF90BF90AF909F90B2
:100510008F900895EF92FF920F931F93CF93DF93E5
:100520007C01C62F6830F8F40E941002182F092FA2
:1005300028E0C29FC001112480640E94A001E7014D
:10054000C70108967C0189910E94EA01CE15DF055A
:10055000D1F7602F812FDF91CF911F910F91FF90E5
:10056000EF900C94F601DF91CF911F910F91FF90C6
:10057000EF900895EF92FF920F931F93CF93DF9325
:100580007C01C62F683018F50E941002182F092F21
:1005900028E0C29FC001112480640E94A001E701ED
:1005A000C70108967C01E9910E2E000CFF0B849187
:1005B0000E94EA01CE15DF05B1F7602F812FDF9190
:1005C000CF911F910F91FF90EF900C94F601DF9166
:1005D000CF911F910F91FF90EF9008950E9410020C
:1005E00008950E941002892F08950C94EA01CF9378
:1005F000DF93EC018991811103C0DF91CF910895C0
:100600000E94EA01F7CFCF93DF93EC01FE018491C2
:100610002196811103C0DF91CF9108950E94EA01D4
:10062000F5CFCF93DF93CDB7DEB72C970FB6F89405
:10063000DEBF0FBECDBF462F572FBC014115510560
:100640006105710559F480E32C960FB6F894DEBF6E
:100650000FBECDBFDF91CF910C94EA01411551053A
:10066000610530E8730709F4C1C0FE0133968AE0E2
:10067000DF011D928A95E9F780E3898320E077FF07
:1006800008C070956095509541955F4F6F4F7F4FB3
:1006900021E080E34130BAEC5B07BAE96B07BBE3CA
:1006A0007B0794F0DB01CA019A5CAA49BB43813005
:1006B0003AEC93073AE9A3073BE3B3070CF49FC076
:1006C00054596543774782E38A8380E3982F8F5F8D
:1006D0004115A1EE5A07A5EF6A07A5E07A070CF0CD
:1006E00092C09B8380E3982F8F5F4038B6E95B0709
:1006F000B8E96B0771050CF08AC09C8380E3982FE2
:100700008F5F403432E453073FE0630771050CF01C
:1007100083C09D8380E3982F8F5F403AA6E85A07F5
:10072000A1E06A0771050CF07CC09E8380E3982FDE
:100730008F5F4031B7E25B07610571050CF076C051
:100740009F8380E3982F8F5F483E33E05307610516
:1007500071050CF070C0988780E3982F8F5F443646
:100760005105610571050CF06BC0998780E3982FE6
:100770008F5F4A305105610571050CF066C09A879C
:10078000405D4B8780E0982F8F5FE1E0F0E0EC0F59
:10079000FD1FE80FF11D30813033A9F3222349F00A
:1007A000E1E0F0E0EC0FFD1FE90FF11D8DE2808329
:1007B000892F3AE0381B20E090E0E1E0F0E0EC0F18
:1007C000FD1FE20FF11DDF01A80FB91F4C914083FF
:1007D0002F5F321790F7E1E0F0E0EC0FFD1FE20F22
:1007E000F11D1082CE0101960E94F7022C960FB6E1
:1007F000F894DEBF0FBECDBFDF91CF910895AC015D
:10080000BD0181E361CF515E654F75405FCF4058B8
:1008100056496849710967CF405452446F40710985
:100820006ECF405A56486140710975CF40515742CA
:10083000610971097CCF485E53406109710982CF1B
:10084000445651096109710988CF4A50510961091B
:1008500071098DCFCF92DF92EF92FF920F931F938A
:10086000CF93DF9300D000D000D0CDB7DEB76B01BF
:100870007C01C982DA82EB82FC8289014E835D832E
:1008800020E030E0A9010E940D07811117C080E32C
:100890000E94EA018EE20E94EA0180E326960FB6EA
:1008A000F894DEBF0FBECDBFDF91CF911F910F91A6
:1008B000FF90EF90DF90CF900C94EA0120E030E0C1
:1008C00040E05FEC69817A818B819C810E94FA070C
:1008D00087FD6BC020E030E040E05FE469817A8111
:1008E0008B819C810E940D0787FF5FC020E030E074
:1008F000A90169817A818B819C810E940D0787FF04
:100900000CC089819A81AB81BC81B05889839A835C
:10091000AB83BC838DE20E94EA0169817A818B817D
:100920009C810E9412070E9411038EE20E94EA013C
:1009300069817A818B819C810E9419070E944807F6
:100940009B01AC0169817A818B819C810E94A00608
:100950006B017C01B8018E819D810E9448079B013B
:10096000AC01C982DA82EB82FC8269817A818B8157
:100970009C810E94FF0769837A838B839C836981B2
:100980007A818B819C810E94120726960FB6F8947B
:10099000DEBF0FBECDBFDF91CF911F910F91FF90B2
:1009A000EF90DF90CF900C94110326960FB6F89439
:1009B000DEBF0FBECDBFDF91CF911F910F91FF9092
:1009C000EF90DF90CF900895249A2398259822984D
:1009D0002A9A83E48CBD8DB58EB508952A9A229A01
:1009E000239A259A24982A9A2D9883E58CBD8DB553
:1009F0008EB508958EBD0DB407FEFDCF8EB508955A
:100A00006AE070E00E948C0630E020E06217730715
:100A100031F430E020E08217930751F40895EFE3BA
:100A2000FCE93197F1F700C000002F5F3F4FEECF98
:100A3000EFE9FFE03197F1F700C000002F5F3F4F73
:100A4000EACF8EBD0DB407FEFDCF82E390E00E9499
:100A500000058EB50895CDB7DEB7C859D1400FB6A1
:100A6000F894DEBF0FBECDBF0E94A9010E94E4042E
:100A70001092D0021092CF021092CE02789460E0D1
:100A800080E00E94F6018DE892E00E94F7020E9449
:100A9000F102282F30E050E040E0CA01B9010E9485
:100AA000110361E080E00E94F60185E992E00E9476
:100AB000F7020E94F102282F30E050E040E0CF56CC
:100AC000DE4F288339834A835B83C159D140CA01F1
:100AD000B9010E9411038AE992E00E94F70284EFB3
:100AE00091E00E9453000E94F301D12CC12C912C63
:100AF000A12CB12C00E010E0F12CE12C82E0882E3A
:100B00008091CE02811144C0812F0E94FA04182FD7
:100B1000823F91F481E08093CE020E94F30160E075
:100B200080E00E94F60185EA92E00E94F7020E94AE
:100B3000CE00D12CC12CE4CF60E08E2D34E0E31642
:100B4000F1041CF061E0C7010497880F880F0E9430
:100B5000F601812F90E0B0E0A0E0CF56DE4F888311
:100B60009983AA83BB83C159D140BC01CD010E94A6
:100B700011038DEB92E00E94F7029FEFE91AF90A48
:100B8000A8E0EA16F1040CF4BBCFF12CE12CB8CFAD
:100B90008091CE02813009F06CC0812F0E94FA044E
:100BA000182FE1E0F0E0EC0FFD1FEC0DFD1D808340
:100BB000BFEFCB1ADB0A811109C00E949900962E63
:100BC000A72EB82E092F8092CE029ACF96010D2C17
:100BD000000C440B550BCF56DE4F288339834A83D4
:100BE0005B83C159D140813009F50E9499000E9470
:100BF000F30160E080E00E94F60182EB92E00E9447
:100C0000F702CF56DE4F688179818A819B81C15975
:100C1000D1400E94110361E080E00E94F60161E092
:100C200070E080E090E00E941103FFCF60E080E080
:100C30000E94F601812F90E0B0E0A0E0CB56DE4F9D
:100C400088839983AA83BB83C559D140BC01CD0158
:100C50000E94110361E080E00E94F601CF56DE4F52
:100C6000688179818A819B81C159D1400E94110399
:100C700047CF8091CE02823009F042CF64E670E027
:100C8000CE0101960E94DC006C010E94F30160E03D
:100C900080E00E94F6018FEB92E00E94F70221E0D3
:100CA00030E040E050E0CF56DE4F9882C159D1404D
:100CB000CE56DE4FA882C259D140CD56DE4FB88203
:100CC000C359D140CC56DE4F0883C459D140CF56CA
:100CD000DE4F688179818A819B81C159D1400E9410
:100CE0002A0461E080E00E94F60185EC92E00E9417
:100CF000F7029601DD0C440B550BCF56DE4F2883CF
:100D000039834A835B83C159D140CA01B9010E942A
:100D100011031092CE020DCFAA1BBB1B51E107C0DD
:100D2000AA1FBB1FA617B70710F0A61BB70B881F7B
:100D3000991F5A95A9F780959095BC01CD0108950A
:100D40005058BB27AA270E94B8060C94C0070E94DF
:100D5000B20738F00E94B90720F039F49F3F19F428
:100D600026F40C94AF070EF4E095E7FB0C94A9076A
:100D7000E92F0E94D10758F3BA1762077307840757
:100D8000950720F079F4A6F50C94F3070EF4E0959E
:100D90000B2EBA2FA02D0B01B90190010C01CA0135
:100DA000A0011124FF27591B99F0593F50F4503EE0
:100DB00068F11A16F040A22F232F342F4427585FD2
:100DC000F3CF469537952795A795F0405395C9F7EA
:100DD0007EF41F16BA0B620B730B840BBAF09150A2
:100DE000A1F0FF0FBB1F661F771F881FC2F70EC041
:100DF000BA0F621F731F841F48F487957795679514
:100E0000B795F7959E3F08F0B0CF9395880F08F0FF
:100E10009927EE0F9795879508950E94850708F406
:100E200081E008950E9419076894B1110C94F407A9
:100E300008950E94D90788F09F5798F0B92F9927F5
:100E4000B751B0F0E1F0660F771F881F991F1AF0B5
:100E5000BA95C9F714C0B13091F00E94F307B1E020
:100E600008950C94F307672F782F8827B85F39F01F
:100E7000B93FCCF3869577956795B395D9F73EF44E
:100E800090958095709561957F4F8F4F9F4F0895F6
:100E9000E89409C097FB3EF4909580957095619514
:100EA0007F4F8F4F9F4F9923A9F0F92F96E9BB27CA
:100EB0009395F695879577956795B795F111F8CF46
:100EC000FAF4BB0F11F460FF1BC06F5F7F4F8F4FB1
:100ED0009F4F16C0882311F096E911C0772321F0A7
:100EE0009EE8872F762F05C0662371F096E8862F3F
:100EF00070E060E02AF09A95660F771F881FDAF796
:100F0000880F9695879597F90895990F0008550FC2
:100F1000AA0BE0E8FEEF16161706E807F907C0F07F
:100F200012161306E407F50798F0621B730B840B87
:100F3000950B39F40A2661F0232B242B252B21F461
:100F400008950A2609F4A140A6958FEF811D811D01
:100F5000089597F99F6780E870E060E008959FEF3B
:100F600080EC089500240A94161617061806090640
:100F7000089500240A94121613061406050608950F
:100F8000092E0394000C11F4882352F0BB0F40F497
:100F9000BF2B11F460FF04C06F5F7F4F8F4F9F4FD7
:100FA000089557FD9058440F551F59F05F3F71F059
:100FB0004795880F97FB991F61F09F3F79F08795C0
:100FC0000895121613061406551FF2CF4695F1DF49
:100FD00008C0161617061806991FF1CF86957105D9
:100FE000610508940895E894BB2766277727CB010D
:100FF00097F908950E94850708F48FEF08950E94DD
:1010000012080C94C0070E94B20738F00E94B9077A
:1010100020F0952311F00C94A9070C94AF0711242C
:101020000C94F4070E94D10770F3959FC1F3950FBC
:1010300050E0551F629FF001729FBB27F00DB11D5C
:10104000639FAA27F00DB11DAA1F649F6627B00DEC
:10105000A11D661F829F2227B00DA11D621F739FD5
:10106000B00DA11D621F839FA00D611D221F749FE3
:101070003327A00D611D231F849F600D211D822F2A
:10108000762F6A2F11249F5750409AF0F1F0882351
:101090004AF0EE0FFF1FBB1F661F771F881F91507E
:1010A0005040A9F79E3F510580F00C94A9070C947D
:1010B000F4075F3FE4F3983ED4F386957795679500
:1010C000B795F795E7959F5FC1F7FE2B880F911DA8
:0C10D0009695879597F90895F894FFCF46
:1010DC0049742773206E6F7420666F72206E6F7464
:1010EC0068696E67207468617420616476616E63F0
:1010FC006564206D617468656D61746963732074D7
:10110C00656E647320746F20626520696E76656EFF
:10111C0074656420696E20686F7420636F756E74DB
:10112C00726965732E20497427732062656361753B
:10113C007365206F6620746865206D6F72706869C6
:10114C0063207265736F6E616E6365206F662061DC
:10115C006C6C207468652063616D656C732C2077F2
:10116C00686F2068617665207468617420646973A7
:10117C006461696E66756C206578707265737369ED
:10118C006F6E20616E642066616D6F757320637580
:10119C00726C6564206C69702061732061206E61D3
:1011AC00747572616C20726573756C74206F662037
:1011BC00616E206162696C69747920746F20646F50
:1011CC0020717561647261746963206571756174F5
:1011DC00696F6E732E202049742773206E6F7420F4
:1011EC0067656E6572616C6C79207265616C697390
:1011FC00656420746861742063616D656C7320682C
:10120C006176652061206E61747572616C2061700D
:10121C0074697475646520666F7220616476616EA2
:10122C00636564206D617468656D61746963732CAA
:10123C0020706172746963756C61726C7920776867
:10124C00657265207468657920696E766F6C766559
:10125C002062616C6C6973746963732E00436869F6
:10126C006C643A20004C43445B005D20776F726BDA
:10127C00696E67210042656E63686D61726B696EA1
:10128C0067004661696C656420626D74303A005485
:0E129C00696D653A004572726F72733A000018
:00000001FF
